{
  "_format": "hh-sol-artifact-1",
  "contractName": "ERC20",
  "sourceName": "src/Harmony/Tokens/HardCapToken.sol",
  "abi": [
    {
      "inputs": [
        {
          "internalType": "string",
          "name": "name_",
          "type": "string"
        },
        {
          "internalType": "string",
          "name": "symbol_",
          "type": "string"
        },
        {
          "internalType": "uint8",
          "name": "decimal_",
          "type": "uint8"
        },
        {
          "internalType": "address",
          "name": "owner_",
          "type": "address"
        },
        {
          "internalType": "uint256",
          "name": "initialSupply_",
          "type": "uint256"
        },
        {
          "internalType": "uint256",
          "name": "totalSupply_",
          "type": "uint256"
        }
      ],
      "stateMutability": "nonpayable",
      "type": "constructor"
    },
    {
      "anonymous": false,
      "inputs": [
        {
          "indexed": true,
          "internalType": "address",
          "name": "owner",
          "type": "address"
        },
        {
          "indexed": true,
          "internalType": "address",
          "name": "spender",
          "type": "address"
        },
        {
          "indexed": false,
          "internalType": "uint256",
          "name": "value",
          "type": "uint256"
        }
      ],
      "name": "Approval",
      "type": "event"
    },
    {
      "anonymous": false,
      "inputs": [
        {
          "indexed": true,
          "internalType": "address",
          "name": "from",
          "type": "address"
        },
        {
          "indexed": true,
          "internalType": "address",
          "name": "to",
          "type": "address"
        },
        {
          "indexed": false,
          "internalType": "uint256",
          "name": "value",
          "type": "uint256"
        }
      ],
      "name": "Transfer",
      "type": "event"
    },
    {
      "inputs": [
        {
          "internalType": "address",
          "name": "owner",
          "type": "address"
        },
        {
          "internalType": "address",
          "name": "spender",
          "type": "address"
        }
      ],
      "name": "allowance",
      "outputs": [
        {
          "internalType": "uint256",
          "name": "",
          "type": "uint256"
        }
      ],
      "stateMutability": "view",
      "type": "function"
    },
    {
      "inputs": [
        {
          "internalType": "address",
          "name": "spender",
          "type": "address"
        },
        {
          "internalType": "uint256",
          "name": "amount",
          "type": "uint256"
        }
      ],
      "name": "approve",
      "outputs": [
        {
          "internalType": "bool",
          "name": "",
          "type": "bool"
        }
      ],
      "stateMutability": "nonpayable",
      "type": "function"
    },
    {
      "inputs": [],
      "name": "availableSupply",
      "outputs": [
        {
          "internalType": "uint256",
          "name": "",
          "type": "uint256"
        }
      ],
      "stateMutability": "view",
      "type": "function"
    },
    {
      "inputs": [
        {
          "internalType": "address",
          "name": "account",
          "type": "address"
        }
      ],
      "name": "balanceOf",
      "outputs": [
        {
          "internalType": "uint256",
          "name": "",
          "type": "uint256"
        }
      ],
      "stateMutability": "view",
      "type": "function"
    },
    {
      "inputs": [
        {
          "internalType": "address",
          "name": "account",
          "type": "address"
        },
        {
          "internalType": "uint256",
          "name": "amount",
          "type": "uint256"
        }
      ],
      "name": "burn",
      "outputs": [],
      "stateMutability": "nonpayable",
      "type": "function"
    },
    {
      "inputs": [],
      "name": "circSupply",
      "outputs": [
        {
          "internalType": "uint256",
          "name": "",
          "type": "uint256"
        }
      ],
      "stateMutability": "view",
      "type": "function"
    },
    {
      "inputs": [],
      "name": "decimals",
      "outputs": [
        {
          "internalType": "uint8",
          "name": "",
          "type": "uint8"
        }
      ],
      "stateMutability": "view",
      "type": "function"
    },
    {
      "inputs": [
        {
          "internalType": "address",
          "name": "spender",
          "type": "address"
        },
        {
          "internalType": "uint256",
          "name": "subtractedValue",
          "type": "uint256"
        }
      ],
      "name": "decreaseAllowance",
      "outputs": [
        {
          "internalType": "bool",
          "name": "",
          "type": "bool"
        }
      ],
      "stateMutability": "nonpayable",
      "type": "function"
    },
    {
      "inputs": [
        {
          "internalType": "address",
          "name": "spender",
          "type": "address"
        },
        {
          "internalType": "uint256",
          "name": "addedValue",
          "type": "uint256"
        }
      ],
      "name": "increaseAllowance",
      "outputs": [
        {
          "internalType": "bool",
          "name": "",
          "type": "bool"
        }
      ],
      "stateMutability": "nonpayable",
      "type": "function"
    },
    {
      "inputs": [],
      "name": "initialSupply",
      "outputs": [
        {
          "internalType": "uint256",
          "name": "",
          "type": "uint256"
        }
      ],
      "stateMutability": "view",
      "type": "function"
    },
    {
      "inputs": [
        {
          "internalType": "address",
          "name": "account",
          "type": "address"
        },
        {
          "internalType": "uint256",
          "name": "amount",
          "type": "uint256"
        }
      ],
      "name": "mint",
      "outputs": [
        {
          "internalType": "bool",
          "name": "",
          "type": "bool"
        }
      ],
      "stateMutability": "nonpayable",
      "type": "function"
    },
    {
      "inputs": [],
      "name": "name",
      "outputs": [
        {
          "internalType": "string",
          "name": "",
          "type": "string"
        }
      ],
      "stateMutability": "view",
      "type": "function"
    },
    {
      "inputs": [],
      "name": "owner",
      "outputs": [
        {
          "internalType": "address",
          "name": "",
          "type": "address"
        }
      ],
      "stateMutability": "view",
      "type": "function"
    },
    {
      "inputs": [],
      "name": "symbol",
      "outputs": [
        {
          "internalType": "string",
          "name": "",
          "type": "string"
        }
      ],
      "stateMutability": "view",
      "type": "function"
    },
    {
      "inputs": [],
      "name": "totalSupply",
      "outputs": [
        {
          "internalType": "uint256",
          "name": "",
          "type": "uint256"
        }
      ],
      "stateMutability": "view",
      "type": "function"
    },
    {
      "inputs": [
        {
          "internalType": "address",
          "name": "recipient",
          "type": "address"
        },
        {
          "internalType": "uint256",
          "name": "amount",
          "type": "uint256"
        }
      ],
      "name": "transfer",
      "outputs": [
        {
          "internalType": "bool",
          "name": "",
          "type": "bool"
        }
      ],
      "stateMutability": "nonpayable",
      "type": "function"
    },
    {
      "inputs": [
        {
          "internalType": "address",
          "name": "sender",
          "type": "address"
        },
        {
          "internalType": "address",
          "name": "recipient",
          "type": "address"
        },
        {
          "internalType": "uint256",
          "name": "amount",
          "type": "uint256"
        }
      ],
      "name": "transferFrom",
      "outputs": [
        {
          "internalType": "bool",
          "name": "",
          "type": "bool"
        }
      ],
      "stateMutability": "nonpayable",
      "type": "function"
    }
  ],
  "bytecode": "0x60806040523480156200001157600080fd5b506040516200129938038062001299833981810160405260c08110156200003757600080fd5b81019080805160405193929190846401000000008211156200005857600080fd5b9083019060208201858111156200006e57600080fd5b82516401000000008111828201881017156200008957600080fd5b82525081516020918201929091019080838360005b83811015620000b85781810151838201526020016200009e565b50505050905090810190601f168015620000e65780820380516001836020036101000a031916815260200191505b50604052602001805160405193929190846401000000008211156200010a57600080fd5b9083019060208201858111156200012057600080fd5b82516401000000008111828201881017156200013b57600080fd5b82525081516020918201929091019080838360005b838110156200016a57818101518382015260200162000150565b50505050905090810190601f168015620001985780820380516001836020036101000a031916815260200191505b506040908152602082810151918301516060840151608090940151885193965090945091620001ce91600791908901906200035a565b508451620001e49060089060208801906200035a565b506003805460ff191660ff8616179055600980546001600160a01b0319166001600160a01b03858116919091179182905560048490556002839055600060065560058390556200023691168362000242565b50505050505062000406565b6001600160a01b0382166200029e576040805162461bcd60e51b815260206004820152601f60248201527f45524332303a206d696e7420746f20746865207a65726f206164647265737300604482015290519081900360640190fd5b600554811115620002e15760405162461bcd60e51b8152600401808060200182810382526026815260200180620012736026913960400191505060405180910390fd5b620002ef6000838362000355565b60068054820190819055600254036005556001600160a01b038216600081815260208181526040808320805486019055805185815290517fddf252ad1be2c89b69c2b068fc378daa952ba7f163c4a11628f55a4df523b3ef929181900390910190a35050565b505050565b828054600181600116156101000203166002900490600052602060002090601f016020900481019282620003925760008555620003dd565b82601f10620003ad57805160ff1916838001178555620003dd565b82800160010185558215620003dd579182015b82811115620003dd578251825591602001919060010190620003c0565b50620003eb929150620003ef565b5090565b5b80821115620003eb5760008155600101620003f0565b610e5d80620004166000396000f3fe608060405234801561001057600080fd5b506004361061011b5760003560e01c80636c41a7c7116100b257806395d89b4111610081578063a457c2d711610066578063a457c2d71461033b578063a9059cbb14610367578063dd62ed3e146103935761011b565b806395d89b41146103055780639dc29fac1461030d5761011b565b80636c41a7c7146102ab57806370a08231146102b35780637ecc2b56146102d95780638da5cb5b146102e15761011b565b8063313ce567116100ee578063313ce5671461022d578063378dc3dc1461024b578063395093511461025357806340c10f191461027f5761011b565b806306fdde0314610120578063095ea7b31461019d57806318160ddd146101dd57806323b872dd146101f7575b600080fd5b6101286103c1565b6040805160208082528351818301528351919283929083019185019080838360005b8381101561016257818101518382015260200161014a565b50505050905090810190601f16801561018f5780820380516001836020036101000a031916815260200191505b509250505060405180910390f35b6101c9600480360360408110156101b357600080fd5b506001600160a01b038135169060200135610457565b604080519115158252519081900360200190f35b6101e5610475565b60408051918252519081900360200190f35b6101c96004803603606081101561020d57600080fd5b506001600160a01b0381358116916020810135909116906040013561047b565b61023561052a565b6040805160ff9092168252519081900360200190f35b6101e5610533565b6101c96004803603604081101561026957600080fd5b506001600160a01b038135169060200135610539565b6101c96004803603604081101561029557600080fd5b506001600160a01b038135169060200135610584565b6101e56105da565b6101e5600480360360208110156102c957600080fd5b50356001600160a01b03166105e0565b6101e56105fb565b6102e9610601565b604080516001600160a01b039092168252519081900360200190f35b610128610610565b6103396004803603604081101561032357600080fd5b506001600160a01b038135169060200135610671565b005b6101c96004803603604081101561035157600080fd5b506001600160a01b0381351690602001356106de565b6101c96004803603604081101561037d57600080fd5b506001600160a01b038135169060200135610776565b6101e5600480360360408110156103a957600080fd5b506001600160a01b038135811691602001351661078a565b60078054604080516020601f600260001961010060018816150201909516949094049384018190048102820181019092528281526060939092909183018282801561044d5780601f106104225761010080835404028352916020019161044d565b820191906000526020600020905b81548152906001019060200180831161043057829003601f168201915b5050505050905090565b600061046b6104646107b5565b84846107b9565b5060015b92915050565b60025490565b60006104888484846108a5565b6001600160a01b0384166000908152600160205260408120816104a96107b5565b6001600160a01b03166001600160a01b031681526020019081526020016000205490508281101561050b5760405162461bcd60e51b8152600401808060200182810382526028815260200180610d4b6028913960400191505060405180910390fd5b61051f856105176107b5565b8584036107b9565b506001949350505050565b60035460ff1690565b60045490565b600061046b6105466107b5565b8484600160006105546107b5565b6001600160a01b03908116825260208083019390935260409182016000908120918b1681529252902054016107b9565b6009546000906001600160a01b031633146105d05760405162461bcd60e51b8152600401808060200182810382526028815260200180610d236028913960400191505060405180910390fd5b61046f83836109fb565b60065490565b6001600160a01b031660009081526020819052604090205490565b60055490565b6009546001600160a01b031690565b60088054604080516020601f600260001961010060018816150201909516949094049384018190048102820181019092528281526060939092909183018282801561044d5780601f106104225761010080835404028352916020019161044d565b6009546001600160a01b031633146106d0576040805162461bcd60e51b815260206004820181905260248201527f45524332303a204d75737420626520746865206f776e657220746f206275726e604482015290519081900360640190fd5b6106da8282610b09565b5050565b600080600160006106ed6107b5565b6001600160a01b03908116825260208083019390935260409182016000908120918816815292529020549050828110156107585760405162461bcd60e51b8152600401808060200182810382526025815260200180610e036025913960400191505060405180910390fd5b61076c6107636107b5565b858584036107b9565b5060019392505050565b600061046b6107836107b5565b84846108a5565b6001600160a01b03918216600090815260016020908152604080832093909416825291909152205490565b3390565b6001600160a01b0383166107fe5760405162461bcd60e51b8152600401808060200182810382526024815260200180610ddf6024913960400191505060405180910390fd5b6001600160a01b0382166108435760405162461bcd60e51b8152600401808060200182810382526022815260200180610cb76022913960400191505060405180910390fd5b6001600160a01b03808416600081815260016020908152604080832094871680845294825291829020859055815185815291517f8c5be1e5ebec7d5bd14f71427d1e84f3dd0314c0f7b2291e5b200ac8c7c3b9259281900390910190a3505050565b6001600160a01b0383166108ea5760405162461bcd60e51b8152600401808060200182810382526025815260200180610dba6025913960400191505060405180910390fd5b6001600160a01b03821661092f5760405162461bcd60e51b8152600401808060200182810382526023815260200180610c726023913960400191505060405180910390fd5b61093a838383610c6c565b6001600160a01b038316600090815260208190526040902054818110156109925760405162461bcd60e51b8152600401808060200182810382526026815260200180610cfd6026913960400191505060405180910390fd5b6001600160a01b038085166000818152602081815260408083208787039055938716808352918490208054870190558351868152935191937fddf252ad1be2c89b69c2b068fc378daa952ba7f163c4a11628f55a4df523b3ef929081900390910190a350505050565b6001600160a01b038216610a56576040805162461bcd60e51b815260206004820152601f60248201527f45524332303a206d696e7420746f20746865207a65726f206164647265737300604482015290519081900360640190fd5b600554811115610a975760405162461bcd60e51b8152600401808060200182810382526026815260200180610d736026913960400191505060405180910390fd5b610aa360008383610c6c565b60068054820190819055600254036005556001600160a01b038216600081815260208181526040808320805486019055805185815290517fddf252ad1be2c89b69c2b068fc378daa952ba7f163c4a11628f55a4df523b3ef929181900390910190a35050565b6001600160a01b038216610b4e5760405162461bcd60e51b8152600401808060200182810382526021815260200180610d996021913960400191505060405180910390fd5b6001600160a01b0382163314610b955760405162461bcd60e51b8152600401808060200182810382526024815260200180610cd96024913960400191505060405180910390fd5b610ba182600083610c6c565b6001600160a01b03821660009081526020819052604090205481811015610bf95760405162461bcd60e51b8152600401808060200182810382526022815260200180610c956022913960400191505060405180910390fd5b6001600160a01b0383166000818152602081815260408083208686039055600280548790039081905560068054889003908190559003600555805186815290519293927fddf252ad1be2c89b69c2b068fc378daa952ba7f163c4a11628f55a4df523b3ef929181900390910190a3505050565b50505056fe45524332303a207472616e7366657220746f20746865207a65726f206164647265737345524332303a206275726e20616d6f756e7420657863656564732062616c616e636545524332303a20617070726f766520746f20746865207a65726f206164647265737345524332303a20596f752063616e6e6f74206275726e206f746865722077616c6c65747345524332303a207472616e7366657220616d6f756e7420657863656564732062616c616e636545524332303a204d75737420626520746865206f776e657220746f2065786563757465206d696e7445524332303a207472616e7366657220616d6f756e74206578636565647320616c6c6f77616e636545524332303a2063616e6e6f74206d696e74206d6f7265207468616e20617661696c61626c6545524332303a206275726e2066726f6d20746865207a65726f206164647265737345524332303a207472616e736665722066726f6d20746865207a65726f206164647265737345524332303a20617070726f76652066726f6d20746865207a65726f206164647265737345524332303a2064656372656173656420616c6c6f77616e63652062656c6f77207a65726fa2646970667358221220ff13c08a5cde2ea3155cc56c8e2255b73f0a40e85a52a3a46e7989af1ddbb40364736f6c6343000706003345524332303a2063616e6e6f74206d696e74206d6f7265207468616e20617661696c61626c65",
  "linkReferences": {},
  "deployedLinkReferences": {}
}